:020000040800F2
:10000000480800202D020008212600080F240008BF
:10001000D9250008411D0008F93000080000000043
:100020000000000000000000000000008D2A000811
:10003000A521000800000000FD280008A12B0008F1
:10004000470200084702000847020008470200086C
:10005000470200084702000847020008470200085C
:10006000470200084702000847020008470200084C
:10007000470200084702000847020008470200083C
:10008000470200084702000847020008470200082C
:10009000470200084702000847020008470200081C
:1000A000470200084702000847020008470200080C
:1000B00047020008492C0008912C0008470200085C
:1000C00047020008470200084702000847020008EC
:1000D00047020008152E0008312E00087D2E00086A
:1000E00047020008470200084702000847020008CC
:1000F00047020008470200084702000847020008BC
:1001000047020008470200084702000847020008AB
:10011000470200084702000847020008470200089B
:10012000470200084702000847020008470200088B
:1001300000F002F800F06AF80AA090E8000C82448F
:100140008344AAF10107DA4501D100F05FF8AFF26C
:10015000090EBAE80F0013F0010F18BFFB1A43F0A5
:10016000010318471C4600003C460000103A24BF1B
:1001700078C878C1FAD8520724BF30C830C144BF0C
:1001800004680C607047000000230024002500264E
:10019000103A28BF78C1FBD8520728BF30C148BFEA
:1001A0000B607047662904F02C82692900F0E28018
:1001B000642900F0DF80752900F0DC806F2900F0F1
:1001C0007381782900F09A810368DB0928BF41F028
:1001D0008001632900F0BB85732900F0C085E32905
:1001E00000F0DE85002070471FB500F00DFE040012
:1001F0000020002103F0D8F9401C6060002000219D
:1002000003F0BCF9E0601FBD10B510BD00F0FCFEAE
:100210001146FFF7E9FF03F07DF800F01AFF03B481
:10022000FFF7F2FF03BC02F084FF0000094880479B
:1002300009480047FEE7FEE7FEE7FEE7FEE7FEE7C8
:10024000FEE7FEE7FEE7FEE704480549054A064BE0
:1002500070470000A52B000831010008480200206B
:10026000480800204804002048040020704700008F
:100270000FB4044910B503AA029800F075FD10BC34
:100280005DF814FB6C0000200FB41CB5074B06AAE8
:100290007B4469460090059800F037FD00206946D0
:1002A00000F046FD1CBC5DF814FB00009D0A000038
:1002B00070B5044685690068C10601D5302600E0A6
:1002C0002026C00707D070BDD4E9012130469047F1
:1002D000206A401C20626D1EF6D570BD70B50446C4
:1002E00085690078C00707D170BDD4E901212020BD
:1002F0009047206A401C20626D1EF6D570BD0968CB
:100300004A0501D540B27047C905FCD500B2704717
:1003100009684A0501D5C0B27047C905FCD580B24D
:10032000704770B50C460546012A05D0287880062E
:1003300000D5EA69002302E0012305E05B1C93423B
:1003400002D2E05C0028F9D1A869E618C01AA861B9
:10035000286A184428622846FFF7AAFF04E0D5E976
:10036000012114F8010B9047B442F8D32846FFF757
:10037000B5FF70BD2DE9F0410646002410687529CF
:10038000314616A510D0FFF7BAFF002802DA404226
:1003900013A507E031688A0701D512A502E04907D5
:1003A00004D511A5012401E0FFF7B2FF00210A22C4
:1003B00006F1240709E0B0FBF2FCB0FBF2F302FB0C
:1003C0001C00303078541846491C0028F3D12346CD
:1003D0002A463046BDE8F04100F02CBA000000008B
:1003E0002D0000002B000000200000002DE9FF5F21
:1003F00015468A460446DFF8AC80F8440027D8E961
:1004000000103E46CDE9001010E03AF816106A469A
:1004100002A800F0D1FC411C07D02178890603D541
:10042000E269391891420DD80744761C207880067D
:1004300002D5E069B84205DDAE42E6DB3AF81600C7
:100440000028E2D1A069C01BA0612046FFF730FF61
:10045000D8E90010CDE90010002017E03AF8181094
:100460006A4602A800F0A8FCB0F1FF3F81460BD01D
:1004700000250DF1080B05E0D4E901211BF805006A
:1004800090476D1C4D45F7D308F10100B0428046FE
:10049000E4DB206A384420622046FFF71FFFBDE8F6
:1004A000FF9F00000A42000070B504462146106814
:1004B000FFF72EFF002104F1240505E000F00702FC
:1004C0003032C0086A54491C0028F7D12068002344
:1004D00008A2050708D500F02000084304D0E06911
:1004E000012305A2401EE0612046BDE8704000F0F7
:1004F000A1B90000000000003000000070B5044603
:100500000D4621461068FFF703FF2188090502D533
:100510000F4A7A4402E00E4A7A440E32002104F176
:10052000240305E000F00F060009965D5E54491CA7
:100530000028F7D120780023000704D5702D02D0C1
:1005400009B1022311322046BDE8704000F072B9B3
:10055000FA4000002DE9F05F894604464FF0000A9A
:10056000DFF874B1FB44C0F820A02046E16888475A
:10057000002874D0252806D0D4E901219047206AAC
:10058000401C2062F1E700265F462046E16888476C
:100590002028054607DB312D05D2781910F8200CEC
:1005A00008B10643F1E7B00701D526F00406C4F808
:1005B0001CA00027C4F818A02A2D09D0284602F054
:1005C000B1FD38B304EB8708303DC8F8185019E086
:1005D00059F8041B204604EB87029161E1688847C3
:1005E000012F054618D1E069002820DA26F0200600
:1005F0001DE0D8F8180000EB800005EB4000303813
:10060000C8F818002046E1688847054602F08AFDD0
:100610000028EED1012F0AD02E2D08D12046E16806
:1006200088477F1C0546022F46F02006C4DBA069E0
:10063000002803DA404246F00106A061F00701D02D
:1006400026F010066C2D0BD0682D09D04C2D39D01A
:100650006A2D35D0742D35D07A2D33D016E038E0A0
:10066000E1682F4620468847B842054609D16C2FDD
:1006700026D04FF48060E16806432046884705464F
:1006800004E06C2F1AD04FF4807006430DB3A5F12F
:100690004100192802D8203546F400664A4629460A
:1006A000204626604E46FFF77DFD80B101280BD025
:1006B000F61D26F0070000F1080956E74020E4E7A0
:1006C0008020D8E70020D6E706F104094DE7284648
:1006D00052E7206ABDE8F09FD040000030B50546E3
:1006E0000B462A4613F8014B12F8010B08B1A04241
:1006F000F8D01CB1002802D06D1CF1E7284630BDAF
:1007000010B5431C02E010F8011B71B18107FAD14A
:100710004FF0013202C88C1A8C4314EAC211F9D08E
:10072000C01A0A0603D0C01E10BDC01A10BD0A04AC
:1007300001D0801E10BD0902FCD0401E10BD032A4E
:1007400040F2308010F0030C00F0158011F8013BEE
:10075000BCF1020F624498BF11F801CB00F8013BD5
:1007600038BF11F8013BA2F1040298BF00F801CB99
:1007700038BF00F8013B11F0030300F02580083A70
:10078000C0F0088051F8043B083A51F804CBA0E8C7
:100790000810F5E7121D5CBF51F8043B40F8043B1C
:1007A000AFF30080D20724BF11F8013B11F801CB51
:1007B00048BF11F8012B24BF00F8013B00F801CB22
:1007C00048BF00F8012B704710B5203AC0F00B80ED
:1007D000B1E81850203AA0E81850B1E81850A0E845
:1007E0001850BFF4F5AF5FEA027C24BFB1E818509F
:1007F000A0E8185044BF18C918C0BDE810405FEA0F
:10080000827C24BF51F8043B40F8043B08BF70478A
:10081000D20728BF31F8023B48BF11F8012B28BF8F
:1008200020F8023B48BF00F8012B70477047704723
:10083000704770472DE9F0470D46994692460446A9
:1008400000F124080168880604D5E06921F0100150
:10085000216000E00120A84201DD471B00E00027E5
:10086000A1697A1902EB0900081AA0612078C00674
:1008700002D42046FFF71CFD002608E0D4E9012140
:100880001AF806009047206A401C761C20624E45EC
:10089000F4DB2078C0060AD52046FFF709FD06E004
:1008A000D4E9012130209047206A401C2062381E84
:1008B000A7F10107F4DC07E0D4E9012118F80500ED
:1008C0009047206A401C2062281EA5F10105F3DC38
:1008D0002046FFF703FD2078000602D50220BDE880
:1008E000F0870120FBE770472DE9FF4F0C461E46BD
:1008F0004FF0FF378BB0D2E90001DDF860800A903D
:100900008A46C1F30A5505B93D46002108464FF015
:100910000000BAF1000F00F4400005DA00EB80009F
:100920004FF4400101EA50004FEA9059B9F1010F2C
:1009300000DDB9460A9850EA4A000ED044F610503D
:10094000A5F2FF3545432F14B8F1000F1ED07542B4
:10095000291E1EDDC9F100021CE0B8F1010F4FF0A5
:10096000000001D0302103E0F24305E02154401C97
:10097000B042FBDB30460022002121540B99C1F824
:100980000880C1E900200FB0BDE8F08FBD1B6D1CD1
:10099000DEE74A4600DA694206A800F0BFFA06AB75
:1009A00093E8070003AB83E8070050460A9900F07C
:1009B00097FB8DE80700A0F500501F3800900398C2
:1009C000002D09DD42F21F014A46084403A90390A5
:1009D000684600F0F6FD08E0A0F500504A461F38D2
:1009E00003A90390684600F000FE8DE807000004AC
:1009F000000C03D04FF0FF30410800E01046B8F182
:100A0000000F03D00022009215461EE0751E05D48B
:100A100000F0FEF9303262556D1EF9D5B346012261
:100A2000084302D000227F1C04E02078302801D146
:100A300000227F1E002A099786D01DE0112D07DABB
:100A400000F0E6F9303262556D1C50EA0102F5D132
:100A5000084302D00098C8B10EE00021681E05E0EE
:100A6000235C625C63542254401E491C8142F7DBC4
:100A7000AB46A81B401E0990002004F80B000B9801
:100A8000099AC0F80880C0E9002B7CE711264FF0D6
:100A9000000859E72DE9F04F88460446D21D22F0A0
:100AA000070191B0D1E90001CDE90A0102F026FB6E
:100AB00002460B98C00F01D02D2007E02068810767
:100AC00001D52B2002E0202101EAC000032A099071
:100AD00001D0072A05DB03464146204600F0DEF937
:100AE0000BE12078800601D5E06900E00620B8F12E
:100AF000650F814606D0B8F1660F18D0B8F1670FC0
:100B000070D131E00020B9F1110F009001DB112309
:100B100001E009F101030AAA01A90CA8FFF7E4FE0C
:100B2000DDE90C70002609F10105834647E001204C
:100B30004B4600904FF000470AAA01A90CA8FFF706
:100B4000D3FEDDE90DB00C995D46002610B909F120
:100B500001000D18B9EB050003D4C0F1FF3609F10F
:100B60000105A5EB09002BE0B9F1010F01DA4FF007
:100B700001090020B9F1110F0090484601DD112351
:100B800000E003460AAA01A90CA8FFF7ADFEDDE9C3
:100B90000C704D4600268346207800070AD4AB45EA
:100BA00000DA5D4601A8012D04DD411911F8011C90
:100BB000302907D04F4502DA17F1040F04DA01207B
:100BC00082460FE06D1EEEE7002F02DCED1B3E4477
:100BD00003E0781CA84200DD7D1CB81B00F1010A6F
:100BE0004FF000472078000703D4AA4501DB4FF0FF
:100BF000FF3A0021B7F1004F0DF143088DF8431083
:100C000024D002202B23002F01DA7F422D230A213A
:100C1000021EA0F1010000DC5FB197FBF1FC97FB25
:100C2000F1F201FB1C7C17460CF1300C08F801CDE9
:100C3000EEE7A8F1010003702188090501D54521DF
:100C400000E06521A0F1010800F8011C09980FA936
:100C5000A1EB0807FF1D00B10120411901EBEA706B
:100C6000A1693844081A401EA0612078C00602D449
:100C70002046FFF71DFB099828B1D4E901219047D0
:100C8000206A401C20622078C00622D52046FFF74B
:100C90000FFB1EE0002E04DBB34502DD01A8805DE2
:100CA00000E03020D4E901219047206A401C2062F6
:100CB000761CAAF101005FEA000A0AD100F0A4F84C
:100CC000C0680168405CD4E901219047206A401C5B
:100CD0002062281EA5F10105DCDC07E0D4E9012132
:100CE00018F8010B9047206A401C2062381EA7F1BB
:100CF0000107F3DC2046FFF7F1FA032011B043E6C9
:100D000001694A1C02610878704700B58FB0CDE9CF
:100D100001310021059105497944CDE903101146BF
:100D20006846FFF717FC0FB000BD0000E5FFFFFFAE
:100D30000A6802F8010B0A60704710B5436913B1E5
:100D4000AFF3008001E0FFF7ECFA012010BD12784C
:100D500000F124010A7000224A700122EDE71168B7
:100D60004FF0FF32E9E70000074B70B50D467B44BA
:100D7000FFF7CBFF0446284600F03EF910B14FF0D4
:100D8000FF3070BD204670BD8725000010B5436957
:100D900013B1AFF3008001E0FFF728FB012010BD85
:100DA000128800F1240182840022C2840122EDE72E
:100DB00011684FF0FF32E9E770B516460C4605465C
:100DC00000F01AF8036893F80101012806D0FF2CFF
:100DD0000FD8185D68B101202C7070BDD3F80701E1
:100DE0003246214603F2071303442846BDE870400B
:100DF00018474FF0FF3070BD10B500F005F8001D2A
:100E000010BD00BFA5270000004870470802002061
:100E100030B5B0F10A024FEA900E71F100034EEACC
:100E2000817EB0EB0E0061EB91014FEA101E4EEA9D
:100E3000017E10EB0E0041EB11114FEA102E4EEA2D
:100E4000016E10EB0E0041EB11214FEA104E4EEAFD
:100E5000014E10EB0E0041EB1141401841F1000131
:100E60004FEAD00040EA41704FEAD10110EB800513
:100E70004FEA810444EA907444EB01046D1944EB99
:100E80000404521BA3414FF0000348BF0A3200D5AF
:100E900030BD401C41F1000130BD00002DE9F041A2
:100EA0001F46044603260168072A01F4006004DB9C
:100EB00008B116A505E016A503E008B115A500E0E8
:100EC00015A521F010002060A069C01EA0610FB11F
:100ED000401EA0612046FFF7EBF94FB1D4E9012194
:100EE00038469047206A401C2062C01C206206E001
:100EF000206AFAE7D4E9012115F8010B9047761E24
:100F0000F8D22046FFF7EAF9BDE8F0814E414E00E5
:100F10006E616E00494E4600696E66002DE9F0472D
:100F2000814616468AB0334878440DC88DE80D00D6
:100F300030487844801C03AC0DC884E80D0041F6AD
:100F40009B300844372190FBF1F290FBF1F5A5F1BD
:100F5000800501FB12041B3C02D56442012000E025
:100F60000020DFF890A080460027FA44AAF1BE0ACC
:100F70000DE0E00709D03246684607EB47010AEB6F
:100F8000810100F032FB8DE8070064107F1C002C0B
:100F9000EFD1184F7F44AC3F18E0E80714D007EBBF
:100FA00004100DF1180A90E80E008AE80E00C068DF
:100FB000F04201D198190890324606A903A800F022
:100FC00014FB03AB83E807006D10641C002DE4D113
:100FD00032466946B8F1000F03A802D000F0F1FADA
:100FE00001E000F002FBC9E90001C9F808200AB0DD
:100FF000BDE8F0879C370000007B00F08000704760
:1010000000487047E80100207546FFF7F9FFAE463B
:1010100005006946534620F00700854618B020B504
:10102000FFF712F9BDE820404FF000064FF000072F
:101030004FF000084FF0000B21F00701AC46ACE880
:10104000C009ACE8C009ACE8C009ACE8C0098D46ED
:1010500070470446AFF300802046FFF7E0F8000039
:101060004FF0013C50F8042B51F8043B9A4221D137
:10107000A2EB0C03934313EACC1317D150F8042BC3
:1010800051F8043B9A4215D1A2EB0C03934313EAA7
:10109000CC130BD150F8042B51F8043B9A4209D1E0
:1010A000A2EB0C03934313EACC13DBD04FF0000008
:1010B000704700BFD01A01BAB1FA81F101F01801EE
:1010C00022FA01F0CB40C1F12001DBB2C0B2C01A5C
:1010D0002CFA01F3D11A914311EAC311E6D17047FA
:1010E0005FEA400C08BF91F0000F4FEA8C234FEAF3
:1010F000C12243EA51514FEA1C5018BF00F5F0409D
:101100004FEA300018BF41F000415FEA6C5C00F02C
:101110002980BCF1FF3F08BF40F080407047130CAE
:1011200006BF12044FF0100C4FF0000C130E04BF5A
:1011300012020CF1080C130F04BF12010CF1040C85
:10114000930F04BF92000CF1020CD30F04BF5200A6
:101150000CF1010C11464FF00002A0F11F00A0EBB2
:101160000C00704711F0004F08BF704731F000418C
:101170003FF4D5AF0B0C06BF09044FF0100C4FF035
:10118000000C0B0E04BF09020CF1080C0B0F04BF7E
:1011900009010CF1040C8B0F04BF89000CF1020C47
:1011A000CB0F04BF49000CF1010CCCF12003A0EBE4
:1011B0000C0022FA03F302FA0CF241EA030100F1F7
:1011C0000100704720F07F4C80EA030023F07F4746
:1011D000ACEB070303F57C5300F0004003F1FF0381
:1011E0002DE980494FEA154B09B44FEA144325EA2B
:1011F0000B4E24EA03480FF2042606EB1327490896
:101200003E785FEA320203FB0667C7F5000707FB7B
:1012100006F64FEA54374FEAD64606F1020607FBB8
:10122000066CCCF1005C4FEA1C472CEA074C07FB2C
:1012300006F40CFB06F504EB15464FEA961634BF90
:1012400000204FF000404FEAD13706FB07FC4FEA81
:101250001C4C0CFB0BF7D21B03FB0CF761EB0701DB
:101260000CFB0EF7B0EB074072EB17420CFB08F7D4
:1012700034BFA2EB0742B2EB074261EB17414FEAE2
:101280000C444FEA910706FB07FC4FEA1C4C0CFB91
:101290000BF7B0EBC74072EB573203FB0CF734BFD0
:1012A000A2EBC742B2EBC74261EB57310CFB0EF722
:1012B000B0EBC70072EB57720CFB08F734BFA2EB20
:1012C000C702B2EBC70261EB5771039F4FEA81611E
:1012D00041EA921104EBCC044FEAD1374FEA826223
:1012E00006FB07FC42EA90124FEA80604FEA1C4C72
:1012F0000CFB0BF7D21B03FB0CF761EB07010CFB9C
:101300000EF7B0EB074072EB17420CFB08F734BF47
:10131000A2EB0742B2EB074261EB17414FEA8C5553
:101320004FEA910704EB9C2406FB07FC4FEA1C4C98
:101330000CFB0BF7B0EBC74072EB573203FB0CF71B
:1013400034BFA2EBC742B2EBC74261EB57310CFB93
:101350000EF7B0EBC70072EB57720CFB08F734BF07
:10136000A2EBC702B2EBC70261EB577115EB4C253C
:101370004FEA816141EA92114FEA82624FEAD13726
:1013800042EA901206FB07FC44F100044FEA806039
:101390004FEA1C4C0CFB0BF7D21B03FB0CF761EB69
:1013A00007010CFB0EF7B0EB074072EB17420CFB8A
:1013B00008F734BFA2EB0742B2EB074261EB1741DB
:1013C00015EB1C154FEA813141EA92414FEA823216
:1013D00042EA90424FEA80304FEA0C7644F1000432
:1013E00048EA03434EEA0B484FF0000EB2EB080CFC
:1013F00071EB030724BF624639464EEB0E0E4FF0E9
:10140000000B0018524149414BEB0B0BB2EB080C9F
:1014100071EB03077BF1000B24BF624639464EEBAC
:101420000E0E4FF0000B0018524149414BEB0B0BD5
:10143000B2EB080C71EB03077BF1000B24BF624693
:1014400039464EEB0E0E51EA020718BF46F0010670
:1014500016EB0E7655F1000254F1000103D5BDE8FC
:101460008901BDE80088BDE88901BDE80048B619DA
:10147000524141EB0101A3F10103704780807F7E5F
:101480007D7C7B7A797877767675747372717170FA
:101490006F6E6E6D6C6C6B6A6A69686867666665AC
:1014A0006464636362616160605F5F5E5E5D5D5C3A
:1014B0005C5B5B5A5A5959585857575656555555AB
:1014C0005454535352525251515050504F4F4F4E0B
:1014D0004E4D4D4D4C4C4C4B4B4B4A4A4A49494959
:1014E000484848474747474646464545454444449B
:1014F000444343434342424242414141002B26D4AC
:10150000770021D01CB54FEA370703B44FF0100025
:101510004FF010014FF000000FBCBDE810400BF180
:10152000010BBBF1010F08BF5FEA170722BF12F1E1
:10153000010211F101014FF0004143F1000300F0FD
:10154000004043EA00007047F9D35708DAE746EA5B
:10155000064613F1400F4FEA16461FDD13F1200F28
:10156000DFBF16430A46002120335B42C8D0C3F1D7
:10157000200746EA064602FA07F74FEA164646EA09
:101580000706C3F1200722FA03F201FA07F721FA4E
:1015900003F14FF0000342EA0702B1E746EA020610
:1015A00046EA06464FEA164646EA0106BCBF46EA48
:1015B0000646360C4FF000034FF000024FF00001DA
:1015C0009EE72DE9C048934630B491E8380007C83B
:1015D00031EA400C48BF34EA430C03D5FFF7F2FD73
:1015E000FFF78CFFF0BCBDE800882DE9C0489346AA
:1015F00030B491E8380007C810F0804F08BF13F0EE
:10160000804F03D100F005F8FFF778FFF0BCBDE88C
:10161000008820F07F4780EA030023F07F4C07EB2F
:101620000C03A3F57C5300F00040A3F1FE0392F0FD
:10163000000F00F0B38095F0000F00F077802DE9E7
:1016400001494FEA11404FEA144621EA004800FBE5
:1016500006FC24EA064708FB06F607FB08F800FB31
:1016600007F718EB06484CEB164C4FEA124B18EBF9
:1016700007484FEA15464CEB174022EA0B4E0BFB8E
:1016800006FC25EA06470EFB06F607FB0EFE0BFBE3
:1016900007F71EEB064E4CEB164C4FF000061EEB08
:1016A000074E4CEB174B18EB0B0840F1000018EB02
:1016B0000E0B58EB000840F100008F1A4FF00001AC
:1016C0003CBFC943661B14BFB5EB040C00213CBFF3
:1016D000C943F61B4FEA17444EEA8E0E27EA04452B
:1016E0004FEA1C4704FB07622CEA074C05FB07F78F
:1016F0000CFB05F604FB0CFC16EB074642EB17420D
:1017000016EB0C4642EB1C421BEB060658EB0202A2
:10171000414146EA9E0601D5BDE80189B61952410C
:1017200041EB0101A3F10103BDE801894FEA144532
:101730004FEA114724EA054621EA074C05FB07F466
:1017400006FB07F70CFB06F105FB0CFC11EB074150
:1017500044EB17444FEA124711EB0C4144EB1C4495
:1017600022EA074C05FB07F206FB07F70CFB06F61F
:1017700005FB0CFC16EB074642EB174216EB0C463A
:1017800042EB1C456A1854F1000148BF7047B61976
:10179000524141EB0101A3F10103704795F0000FA5
:1017A00037D04FEA11424FEA144721EA024624EAB1
:1017B000074C02FB07F106FB07F70CFB06F402FBE4
:1017C0000CFC14EB074441EB17414FEA154714EBAF
:1017D0000C4441EB1C4125EA074C02FB07F506FBD4
:1017E00007F70CFB06F602FB0CFC16EB074645EB75
:1017F000174516EB0C4645EB1C42121951F100013E
:1018000048BF7047B619524141EB0101A3F10103F2
:1018100070474FEA14454FEA114724EA054621EA8A
:10182000074C05FB07F106FB07F70CFB06F24FF030
:10183000000605FB0CFC12EB074241EB174112EBD3
:101840000C4251EB1C4148BF7047921841EB01011B
:10185000A3F10103704721B1826842F00102826066
:1018600003E0826822F001028260704721B1826841
:1018700042F48072826003E0826822F480728260A7
:101880007047014600208A6802F004020AB1012074
:1018900000E0002070470146C86C80B270470246E5
:1018A000002013680B400BB1012000E000207047BE
:1018B000014600208A6802F008020AB1012000E017
:1018C0000020704730B502460020002350680F4CBE
:1018D00020400D790C6844EA05242043506090684C
:1018E0000B4C2040D1E902542C434D7944EA450485
:1018F00020439060D06A20F470000C7C641EE4B237
:10190000234340EA0350D06230BD0000FFFEF0FFE9
:10191000FDF7F1FFF0B504460D4600200021092D2A
:1019200011DDE068A5F10A0606EB4607072606FA70
:1019300007F18843A5F10A0606EB460603FA06F10D
:101940000843E0600CE0206905EB4507072606FA2E
:1019500007F1884305EB450603FA06F108432061C9
:10196000072A0FDA606B561E06EB86071F2606FA5B
:1019700007F18843561E06EB860605FA06F1084372
:10198000606322E00D2A0FDA206BD61F06EB860774
:101990001F2606FA07F18843D61F06EB860605FACE
:1019A00006F10843206310E0E06AA2F10D0606EBA1
:1019B00086071F2606FA07F18843A2F10D0606EBFB
:1019C000860605FA06F10843E062F0BD816841F041
:1019D00008018160704721B1826842F4A0028260F0
:1019E00003E0826822F4A00282607047816841F0BF
:1019F000040181607047000008B50121042000F057
:101A0000BBFF0F20ADF8000000208DF803006946F1
:101A1000014800F0F5FB08BD0008014010B5FFF7D4
:101A2000EBFF00F001F810BD00B591B001210846B0
:101A300000F072FF0121480200F09EFF3D4800F0D7
:101A4000A5F93D4806903D480790002008900420E5
:101A5000099000200A9080200B9040000C9080009C
:101A60000D9020200E9000020F900020109006A9EB
:101A7000304800F031FA01212E4800F07BF90020B7
:101A8000019001208DF808008DF809004FF46020C6
:101A900003900020049004208DF8140001A926482A
:101AA0004C38FFF70FFF4FF4404000F029FF0523AB
:101AB0000122002120484C38FFF72CFF0523022289
:101AC00001211D484C38FFF725FF05230322022181
:101AD00019484C38FFF71EFF05230422032116483E
:101AE0004C38FFF717FF012113484C38FFF7BEFEB3
:101AF000012111484C38FFF7AEFE0F484C38FFF774
:101B000065FF00BF0C484C38FFF7D2FE0028F9D122
:101B100009484C38FFF76AFF00BF07484C38FFF709
:101B2000B0FE0028F9D1012103484C38FFF753FFDC
:101B300011B000BD080002404C2401408800002084
:101B400010B55CA0FEF794FB4FF4967001F088FB93
:101B50005AA15B48FEF7C2FD5A49086000F0F2F84E
:101B60000EE000F0EFF853A0FEF782FB4FF4967002
:101B700001F076FB51A15248FEF7B0FD51490860D3
:101B8000504800680028ECD04FA0FEF771FB4FF4DE
:101B9000967001F065FB4FA0FEF76AFB4FF496705C
:101BA00001F05EFB4EA14648FEF798FD45490860EE
:101BB00000F0C8F80EE000F0C5F846A0FEF758FBAC
:101BC0004FF4967001F04CFB45A13D48FEF786FDB1
:101BD0003C4908603B4800680028ECD041A0FEF773
:101BE00047FB4FF4967001F03BFB34A13448FEF7FD
:101BF00075FD3449086000F0A5F83EA0FEF738FBFB
:101C00004FF4967001F02CFB3DA12D48FEF766FDC8
:101C10002C49086000F096F80EE000F093F835A02B
:101C2000FEF726FB4FF4967001F01AFB34A124480E
:101C3000FEF754FD23490860224800680028ECD0D4
:101C400032A0FEF715FB4FF4967001F009FB32A1AC
:101C50001B48FEF743FD1B4908600846006830B387
:101C600008460068007A30380968C979303901EBD4
:101C7000810100EB41002A4908700846007863287A
:101C800004D010480068C079303860B90AE00020FC
:101C9000234981F8720023A001F01AFA4FF49670DC
:101CA00001F0DEFAF3E701201D4981F8720000F02F
:101CB00049F810BD41540D0A000000004F4B0000D0
:101CC000AC0000209000002041542B4346554E3D6F
:101CD000310D0A0041542B43494D490D0A000000C3
:101CE0003436300041542B43474154543D310D0AA2
:101CF0000000000041542B43474154543F0D0A005B
:101D00002B43474154543A203100000041542B43A7
:101D10004553510D0A0000002B434553510000006C
:101D200074010020D0C5BAC5CBD1CBF7CAA7B0DCAF
:101D3000A3ACC7EBB2E9BFB4D4ADD2F2210D0A0017
:101D400000BFFEE710B5094801F0C2F9002404E025
:101D5000002006490855601CC4B2642CF8DB002042
:101D60000349087000F05EFB10BD0000AC000020CD
:101D70007000002021B1026842F00102026004E01C
:101D800002684FF6FE731A400260704701684FF612
:101D9000FE72114001600021016041608160C160FC
:101DA0004B49884208D14A490839496841F00F0136
:101DB000474A083A51608AE045491431884208D1BF
:101DC00043490839496841F0F001414A083A5160F5
:101DD0007DE03F492831884208D13D4908394968AA
:101DE00041F470613A4A083A516070E038493C3138
:101DF000884208D136490839496841F47041344A6B
:101E0000083A516063E032495031884208D1304984
:101E10000839496841F470212D4A083A516056E06A
:101E20002B496431884208D129490839496841F46D
:101E30007001274A083A516049E0254978318842C3
:101E400008D123490839496841F07061204A083AAD
:101E500051603CE01F49884206D1011F096841F0EA
:101E60000F01021F116032E01A491431884208D173
:101E70001849091F096841F0F001164A121F116044
:101E800025E014492831884208D11249091F096800
:101E900041F470610F4A121F116018E00D493C3186
:101EA000884208D10B49091F096841F47041094A69
:101EB000121F11600BE007495031884207D10549D4
:101EC000091F096841F47021024A121F116070470E
:101ED000080002400804024010B50022026847F6DC
:101EE000F0739A430C6A8B6823430C6923434C6953
:101EF00023438C692343CC6923434C6A23438C6A74
:101F000023431A430260CB6843600B6883604B68CD
:101F1000C36010BD10B500241548006820F00F0004
:101F2000134908600846006840F00800086004E0B3
:101F3000601CC4B2012001F0B9F90E48006808B174
:101F4000C82CF5DBC82C01DB012010BD002404E007
:101F5000601CC4B2012001F0A9F90648006808B964
:101F6000F02CF5DBF02C01DB0120EEE70020ECE7A4
:101F700000080140000121422DE9F84F00F0CCF8A3
:101F800000F0A8F8FFF7C6FFCC2000F0D1F8BE2083
:101F900000F0CEF800F08CF8834600F089F8044693
:101FA000072C08DDE043C4B26FEA0B0000F0FF0B22
:101FB0004FF0000A01E04FF0010AA1464FEA092064
:101FC0000FFA80F909EB0B000FFA80F9484602F08E
:101FD00045F9009001F0C6FF07460022084B01F0CA
:101FE000A3FD054601F034FD0FFA80F9BAF1000FA8
:101FF00002D04846BDE8F88FC9F1000000B2F9E709
:102000000000E43F08B50121042000F0B5FC0120E8
:10201000ADF8000010208DF8030003208DF80200B9
:102020006946064800F0ECF80121054800F0BCF9CB
:1020300000F050F8FFF76EFF08BD000000080140F7
:102040000020014010B51748006820F00F00154926
:1020500008600846006840F003000860002012494C
:102060000860022001F022F901201049C1F8800126
:102070000C48006820F00F000A4908600846006814
:1020800040F0080008600C2001F010F90648803884
:10209000006808B1012400E00024322001F006F9B4
:1020A000204610BD0008014080012142000021426D
:1020B00070B50026012508E0FFF7C4FF0446E001E3
:1020C00040EA6600C6B2681CC5B2082DF4DD304691
:1020D00070BD000010B50D48006820F00F000B49DE
:1020E00008600846006840F00300086000200849C6
:1020F000086040F2EE2001F0D9F801200549C1F84E
:1021000080010F2001F0D2F810BD0000000801404E
:10211000800121420000214210B5FFF7DBFFFFF7ED
:10212000F9FECC2000F004F8442000F001F810BDC6
:1021300070B504461848006820F00F001649086082
:102140000846006840F003000860012520E004F024
:10215000010664106EB1002010490860022001F0F1
:10216000A5F801200E49C1F880013C2001F09EF83D
:102170000CE00020094908603C2001F097F801209C
:102180000749C1F88001022001F090F8681CC5B22F
:10219000082DDCDD70BD00000008014080012142F7
:1021A000000021427047000008B501211D2000F009
:1021B000E3FB0121104800F0AFF84FF4C850ADF830
:1021C000000010208DF8030003208DF802006946FE
:1021D0000A4800F015F84FF48071084800F0E4F860
:1021E0004FF40061054800F0DFF84FF480510348D8
:1021F00000F0DAF808BD00000002300000080140DD
:102200002DE9F0410246002500260020002300248D
:10221000002791F803C00CF00F0591F803C00CF0F3
:10222000100CBCF1000F03D091F802C04CEA050578
:1022300091F800C0BCF1000F31D0146800202BE0F1
:102240004FF0010C0CFA00F3B1F800C00CEA0306E1
:102250009E4220D183004FF00F0C0CFA03F7BC43D1
:1022600005FA03FC4CEA040491F803C0BCF1280F02
:1022700006D14FF0010C0CFA00FCC2F814C00AE0C1
:1022800091F803C0BCF1480F05D14FF0010C0CFAD6
:1022900000FCC2F810C0401C0828D1D31460B1F86B
:1022A00000C0BCF1FF0F34DD546800202EE000F1C7
:1022B000080C4FF0010808FA0CF3B1F800C00CEA62
:1022C00003069E4221D183004FF00F0C0CFA03F756
:1022D000BC4305FA03FC4CEA040491F803C0BCF1CA
:1022E000280F05D100F1080C08FA0CF8C2F8148088
:1022F00091F803C0BCF1480F07D100F1080C4FF072
:10230000010808FA0CF8C2F81080401C0828CED347
:102310005460BDE8F0810000F0B50A4600230024B7
:102320000021002500F00046B6F1004F02D11D4EFD
:10233000F16901E01B4E7168C0F3034583B200F4FC
:102340004016B6F5401F08D121F07061154E766831
:1023500026F07066134F7E6012E000F48016B6F52A
:10236000801F06D1032606FA05F4A14341F07061EF
:1023700006E0460D360103FA06F6B14341F07061FE
:1023800022B1460D360103FA06F6314300F000464D
:10239000B6F1004F02D1034EF16101E0014E7160D0
:1023A000F0BD0000000001400161704710B5044617
:1023B0000723012221460948FFF7ACFA012107480B
:1023C000FFF709FB00BF02210448FFF768FA002865
:1023D000F9D00248FFF75FFA10BD00000024014069
:1023E0002DE9F04107460C460025002608E0384656
:1023F000FFF7DCFF0544052000F032FF701CC6B279
:10240000A642F4DBB5FBF4F080B2BDE8F08100BF7A
:10241000FEE700004CF6CC40014908607047000020
:102420000030004010B500F013F810BD70B505463F
:102430000C4645F2555000F01FF8284600F010F801
:10244000204600F013F800F003F8FFF7E3FF70BD3B
:102450004AF6AA2001490860704700000030004099
:102460000149486070470000003000400149886021
:1024700070470000003000400149086070470000CC
:102480000030004010B51FA327A229A12BA0FDF703
:10249000EFFE4FF4967000F0E3FE32A0FDF7E8FE89
:1024A0004FF4967000F0DCFE38A13C48FEF716F9B8
:1024B0003B49086005E035A13848FEF70FF9384977
:1024C0000860374800680028F5D0FFF73BFC35A0CE
:1024D000FDF7CEFE4FF4967000F0C2FE3AA12F48F1
:1024E000FEF7FCF82E49086005E037A12B48FEF7FF
:1024F000F5F82B4908602A4800680028F5D0FFF756
:1025000021FC10BD36393435303261313935366110
:102510003366616638626530393735313138653652
:1025200061663365000000006C697A690000000094
:10253000613170454A6737756142760041542B51CD
:102540004D544346473D22616C6961757468222C85
:10255000302C222573222C222573222C2225732233
:102560000D0A000041542B514D544F50454E3D3003
:102570002C223133392E3139362E3133352E313349
:1025800035222C313838330D0A0000002B514D54C0
:102590004F50454E3A20302C30000000AC00002057
:1025A0009000002041542B514D54434F4E4E3D302E
:1025B0002C22636C69656E744578616D706C655F23
:1025C00031393837220D0A002B514D54434F4E4EAE
:1025D0003A20302C302C300000BFFEE72DE9F041CE
:1025E000DCB080460C4615461E46A0220B4934A896
:1025F000FEF7EAF82B46224634A902A80096FDF71A
:1026000043FE02A8FEF77CF887B23A4602A940468C
:10261000FEF795F8F8B25CB0BDE8F081E04600083E
:102620007047000070B5002100230F22C47804B366
:10263000154C246804F4E064C4F5E064210AC1F197
:102640000403CA40447804FA03F184781440214317
:1026500009010E4C0678A155047804F01F050124E9
:10266000AC4005786D11AD0005F1E025C5F80041DD
:1026700009E0047804F01F050124AC40044D0678FD
:10268000761145F8264070BD0CED00E000E400E056
:1026900080E100E002490143024A116070470000F6
:1026A0000000FA050CED00E010B52EA0FDF7E0FDEE
:1026B0004FF4967000F0D4FD2CA12D48FEF70EF8D3
:1026C000044628A0FDF7D4FD4FF4967000F0C8FD35
:1026D00026A12748FEF702F80446FFF7A3FEC4B977
:1026E0000120244908604FF4967000F0B9FD4FF4C2
:1026F000967000F0B5FD4FF4967000F0B1FD4FF408
:10270000967000F0ADFD00201B49C1F88001FFF775
:1027100089FE14A0FDF7ACFD4FF4967000F0A0FD0B
:10272000FFF780FE11A11248FDF7D8FF044613A061
:10273000FDF79EFD4FF4967000F092FD00201249C7
:102740000860FFF76FFE11A0FDF792FD4FF4967041
:1027500000F086FD11A0FDF78BFD4FF4967000F0A0
:102760007FFD10BD41540D0A000000004F4B0000DA
:10277000AC0000208001214200002142415445303C
:1027800026570D0A000000008081214241542B5140
:102790004D54444953433D300D0A000041542B51E0
:1027A0004D54434C4F53453D300D0A002DE9F84F31
:1027B0000A210420FFF714FE8246FFF7DDFB0546E1
:1027C00001F04CFD04463E4901F066FC00903D4995
:1027D000009801F06FFE04D20AF105001FFA80FA9A
:1027E0001DE03949009801F065FE18D2364900987D
:1027F00001F092FE8046354901F090FD06463449CD
:1028000001F04AFC0546504601F040FD07462946C6
:1028100001F0D4FB044601F001FD1FFA80FA504696
:1028200001F034FD804601F09DFB06464FF0663214
:10283000284B01F079F9044600F0CCFE8346584657
:1028400001F090FB8046244A244B01F06DF90646C6
:10285000234A244B00F0F0FE044600F0BBFE834602
:10286000584601F07FFB04460022134601F020F990
:1028700001D84FF0000B584601F074FB04460022CB
:10288000194B01F04FFA01D8DFF844B0584601F077
:1028900069FB044622460B4614A0FDF7E9FCFA202A
:1028A00000F0DEFC1448006808B9012000E00020B8
:1028B00011490860584601F0B1FCC0B2BDE8F88F7C
:1028C00000002041000028420000E0410000A0403C
:1028D0000000604166664A3F87A757CA320417C0A6
:1028E0008195438B6CA7304000002C4050482076E7
:1028F000616C3A2025660A00B4012242704700004C
:1029000001460020034A506820F4404008435060CC
:10291000704700000010024029B1064A5269024384
:10292000044B5A6104E0034A52698243014B5A61E5
:10293000704700000010024029B1064AD2690243E4
:10294000044BDA6104E0034AD2698243014BDA6145
:10295000704700000010024029B1064A1269024384
:10296000044B1A6104E0034A12698243014B1A6165
:10297000704700000010024029B1064A92690243E4
:10298000044B9A6104E0034A92698243014B9A61C5
:10299000704700000010024029B1064AD268024385
:1029A000044BDA6004E0034AD2688243014BDA60E8
:1029B000704700000010024030B5002100220024C2
:1029C00000232D4D6D6805F00C0121B1042905D0BF
:1029D000082923D105E0294D056022E0274D056037
:1029E0001FE0254D6D6805F47012234D6D6805F4E8
:1029F0008034022505EB92421CB9214D55430560F8
:102A00000BE01D4D6D6805F400351DB11C4D55439F
:102A1000056002E0194D5543056002E0174D056061
:102A200000BF00BF144D6D6805F0F0010909154D98
:102A30006B5C0568DD4045600F4D6D6805F4E06135
:102A4000090A104D6B5C4568DD4085600A4D6D6874
:102A500005F46051C90A0B4D6B5C4568DD40C560EB
:102A6000054D6D6805F44041890B074D6B5CC568E9
:102A7000B5FBF3F5056130BD0010024000127A008D
:102A800000093D007400002084000020704710B54C
:102A900000F002F810BD00000CB50020019000907D
:102AA0003348006840F480303149086000BF304846
:102AB000006800F4003000900198401C01900098DC
:102AC00018B90198B0F5A06FF1D12948006800F459
:102AD000003010B10120009001E00020009000982B
:102AE000012843D12348006840F0100021490860C4
:102AF0000846006820F0030008600846006840F0BF
:102B0000020008601A484068194948600846406851
:102B100048600846406840F4806048600846406865
:102B200020F47C1048600846406840F4E810486093
:102B30000846006840F08070086000BF0C480068DC
:102B400000F000700028F9D00948406820F0030028
:102B5000074948600846406840F00200486000BFEE
:102B60000348406800F00C000828F9D10CBD0000B3
:102B70000010024000200240042808D14FF0E0215C
:102B8000096941F004014FF0E022116107E04FF0C4
:102B9000E021096921F004014FF0E0221161704742
:102BA0007047000010B51348006840F0010011495B
:102BB000086008464068104908400E4948600846C9
:102BC00000680E4908400B4908600846006820F478
:102BD000802008600846406820F4FE0048604FF4FA
:102BE0001F008860FFF753FF4FF000600449086042
:102BF00010BD0000001002400000FFF8FFFFF6FECD
:102C000008ED00E070B5FFF7B7F9044601F026FBC8
:102C1000084908600846006801F0A4F90446224605
:102C20000B4605A0FDF724FB0248006801F0F6FA08
:102C3000C0B270BD3C00002074656D702076616C80
:102C40003A2025660A00000010B501210D4800F069
:102C50003CF8A8B101210B4800F028F80A48007898
:102C6000401C09490870084600781E2808DB00202F
:102C700008700120054908700021024800F019F889
:102C800010BD0000000400409800002099000020C2
:102C900010B50121044800F018F818B101210248CC
:102CA00000F004F810BD000000080040CA43028292
:102CB000704721B1028842F00102028004E00288DC
:102CC0004FF6FE731A400280704730B5024600206E
:102CD00000230024158A05EA0103958905EA010409
:102CE00013B10CB1012000E0002030BD2DE9FF5FE1
:102CF0003649886801F036F90646354A354B00F00A
:102D00004FFD044600F066FC334908600846006841
:102D100001F028F906460F4630493148006801F0B5
:102D2000BBF9019001F01EF9824600222D4B01F003
:102D30002FF82D4A2D4BCDE9020100F0F5FE80461B
:102D400032463B4600F078FC044600F043FC28493C
:102D500008602848006801F005F980468946244843
:102D6000006801F0FFF80646234A244B00F0DCFE21
:102D7000824642464B4600F05FFC044600F02AFCC7
:102D80001F49086000211E48006801F093FA02D82C
:102D900000201B4908601B491948006801F08AFBA4
:102DA00002D81848164908601548006801F0DAF89A
:102DB000044622460B4614A0FDF75AFA1048006854
:102DC00001F02CFAC0B204B0BDE8F09F9C000020D6
:102DD0001F85EB51B81EE53F400000200000204158
:102DE0002C00002000003940613255302AA993BFE1
:102DF000480000204C0000203D0AD7A3700D8BC076
:102E00004400002000803B4554552076616C3A20F8
:102E100025660A0010B540F22551044800F096F8E6
:102E200018B1024800F04EF9C4B210BD003801409C
:102E300010B540F225510E4800F088F8B0B10C48AA
:102E400000F040F9C4B20A4800F03CF9C1B20948A8
:102E500002780078401C074B1870074881541846C8
:102E60000078632802DD00201946087010BD0000BC
:102E70000044004070000020AC00002010B540F27B
:102E80002551044800F062F818B1024800F01AF920
:102E9000C4B210BD0048004021B1828942F4005202
:102EA000828104E082894DF6FF731A408281704767
:102EB00010B504462048844209D101218803FFF758
:102EC0006BFD00214FF48040FFF766FD32E01B48A8
:102ED000844209D101214804FFF73EFD00214FF44F
:102EE0000030FFF739FD25E01548844209D1012162
:102EF0008804FFF731FD00214FF48020FFF72CFDFF
:102F000018E01048844209D10121C804FFF724FDCC
:102F100000214FF40020FFF71FFD0BE00A48844218
:102F200008D101210805FFF717FD00214FF480109B
:102F3000FFF712FD10BD00000038014000440040C2
:102F400000480040004C00400050004070B5024670
:102F5000002400230025002040F66A16B14200D16B
:102F600000BFC1F3421501F01F03012606FA03F367
:102F7000012D02D19689334006E0022D02D1168A36
:102F8000334001E0968A33400C12012606FA04F41D
:102F90001688344013B10CB1012000E0002070BD50
:102FA000F0B50346002400260025002040F66A17ED
:102FB000B94200D100BF1846C1F3421401F01F0608
:102FC000012707FA06F5012C01D10C3004E0022C90
:102FD00001D1103000E014301AB107682F430760A8
:102FE00002E00768AF430760F0BD00002DE9F0473D
:102FF00086B005460E460024A24600BFA146002723
:10300000B08900B100BF2F462C8A4CF6FF700440F7
:10301000F08804432C82AC894EF6F3100440B0884B
:1030200031890843718908430443AC81AC8A4FF667
:10303000FF400440B0890443AC8201A8FFF7BCFC08
:103040001F48874202D1DDF810A001E0DDF80CA096
:10305000A88900F4004040B10AEBCA0000EB0A1056
:1030600031684900B0FBF1F807E00AEBCA0000EB59
:103070000A1031688900B0FBF1F86420B8FBF0F069
:1030800004012009642101FB1089A88900F4004093
:1030900040B1322000EBC900B0FBF1F000F00700B6
:1030A000044308E0322000EB09106421B0FBF1F08A
:1030B00000F00F0004432C8106B0BDE8F08700004B
:1030C0000038014001468888C0F3080070470000BE
:1030D0000BE000BF0749098801F040010029F9D041
:1030E0000178044A121D1180401C01780029F0D19A
:1030F000704700000038014000BFFEE7490050EA79
:10310000C12018BF04204A0D18BF40F0010040F252
:10311000FF72B2EB515F08BF40F00200012808BF08
:103120000520704730380A2801D20120704700205E
:10313000704700BF70470000F0B5CBB004460D46A5
:1031400016461CA127A0FDF793F84FF4967000F0E7
:1031500087F833462A4621466846FFF73FFA074676
:1031600000200DF80700694624A0FDF781F800BF94
:103170002348008800F040000028F9D01A20204998
:10318000091D0880642000F06BF81EA12148FDF79E
:10319000A5FA2149086005E01AA11E48FDF79EFA2C
:1031A0001D4908601C4800680028F5D0FEF7CAFDDC
:1031B0004BB0F0BD2F7379732F613170454A67377B
:1031C000756142762F6C697A692F7468696E672F12
:1031D0006576656E742F70726F70657274792F707A
:1031E0006F73740041542B514D545055423D302C57
:1031F000302C302C302C25730D0A00002573000074
:10320000004400402B514D545055423A20302C3050
:103210002C300000AC0000209000002010B56FF0B2
:103220000400FFF7A9FC0A4800680A49B0FBF1F066
:10323000094908700846007800EB4001C1EBC01056
:103240004FF6FF7101EAC0000449088010BD00007C
:103250005000002000127A00640000206600002068
:103260000146114A12884A434FF0E0235A61002276
:103270009A611A46126942F001021A6100BF4FF0CA
:10328000E022106900F001021AB100F48032002A35
:10329000F5D04FF0E022126922F001024FF0E02356
:1032A0001A6100229A617047660000200146114AA7
:1032B00012784A434FF0E0235A6100229A611A467D
:1032C000126942F001021A6100BF4FF0E02210695A
:1032D00000F001021AB100F48032002AF5D04FF05C
:1032E000E022126922F001024FF0E0231A6100226D
:1032F0009A6170476400002000BF054A128802F0FE
:103300004002002AF9D0C2B2014B1B1D1A8070473F
:10331000004400401CB54FF4A060FFF7BBF9FFF775
:103320007DFFFEF741FF4FF4E13000F0D3F84FF49A
:10333000E13000F07BF840F271210720FFF776F8CA
:10334000FEF76CFB06E028A0FCF792FF4FF46170DB
:10335000FFF786FFFEF756FE0028F4D1FFF7A4F929
:10336000FEF7EEFBFFF78EF83DE0002424E0234952
:1033700031F8140000F08AFF4FF08B41009000F00C
:103380008BFE814600F0EEFD07464FF066321C4B87
:1033900000F0CAFB054600F01DF91A4941F8240067
:1033A00051F8240000F0DEFD05462A460B46214672
:1033B00015A0FCF75DFF641C042CD8DBFFF722FC92
:1033C0008246FFF7F3F98346FFF790FC01905946D8
:1033D0005046019AFFF7B0FE4FF4FA70FFF740FF36
:1033E000FFF720F800BFC0E7CEB4BCECB2E2B5BD39
:1033F000CEC2B6C8B4ABB8D0C6F700008800002073
:1034000066660A409C0000204144435F436F6E762D
:10341000657274656456616C75655B25645D3D25F8
:10342000342E336620560D0A0000000010B586B019
:10343000044601210420FFF79FFA01214804FFF709
:103440007BFA2248FFF734FD0420ADF81400032076
:103450008DF8160018208DF8170005A91C48FEF7F6
:10346000CFFE0820ADF8140004208DF8170005A940
:103470001748FEF7C5FE26208DF8000000208DF8C5
:10348000010001208DF802008DF803006846FFF767
:10349000C9F801940020ADF80800ADF80A00ADF8B5
:1034A0000C00ADF810000C20ADF80E0001A9074883
:1034B000FFF79CFD012240F225510448FFF770FD03
:1034C00001210248FFF7E8FC06B010BD00440040AF
:1034D0000008014010B586B00446012144F2040002
:1034E000FFF74AFA2348FFF7E3FC4FF40070ADF80A
:1034F000140003208DF8160018208DF8170005A978
:103500001D48FEF77DFE4FF48060ADF814004820A2
:103510008DF8170005A91848FEF772FE25208DF8D2
:10352000000003208DF801008DF8020001208DF8C5
:1035300003006846FFF776F801940020ADF8080014
:10354000ADF80A00ADF80C00ADF810000C20ADF895
:103550000E0001A90748FFF749FD012240F225515D
:103560000448FFF71DFD01210248FFF795FC06B056
:1035700010BD0000003801400008014010B50029CE
:103580000AD00878002807D005487844FDF768FD80
:10359000002801D0002010BD0248784410BD000072
:1035A000161200000E12000010B500290AD008788B
:1035B000002807D005487844FDF752FD002801D0C7
:1035C000002010BD0248784410BD00000612000023
:1035D000FE11000021F00042A2F16052B2F5801FFE
:1035E00001F0004328BFD2F17F6C0BD95FEA001CC9
:1035F00043EAC20242EB507018BF704728BF20F068
:1036000001007047B2F5801FBCBF184670474FEAF3
:10361000410C1CF5001F02D2084600F046BF70B5F1
:1036200000F02CFB00000089FFF7F6BF4FF00040D0
:10363000A0F580007047000010B591EA030F48BF65
:1036400083F0004300F1AC83841A71EB030C05D2C4
:10365000121943EB0C03001B61EB0C01DFF824E1B2
:103660004FEA1154A4EB135C1EEA430F18BF9EEA05
:10367000445F73D023EA0E03DCF1200E21EA0451EB
:1036800043F4801332D322FA0CFE10EB0E0023FA1F
:103690000CFE41EB0E01CCF1200E03FA0EFE10EBF6
:1036A0000E0051F10001B1F5801FCCF1200E32D295
:1036B00001EB045112FA0EF2BDE8104058BF7047FA
:1036C000401C38BF5FEA420218BF7047002814BF91
:1036D00020F0010041F100014FEA410313F5001F02
:1036E00038BF7047A1F1C04100F016BB012A43EB7F
:1036F0000302ACF1200CDCF11F0E32BF4FF0000EC4
:1037000023FA0CF310EB030041EB0451B4EB115F0F
:10371000D0D0A1EB045101F5801149085FEA3000D7
:1037200001EB04510ED350F1000038BF12FA0EFE27
:1037300008D1BDE81040C9E7401C38BF5FEA42022B
:10374000CAD1C3E7BDE810404FEA410313F5001F9B
:1037500038BF7047A1F1C04100F0DEBA9EEA445F75
:1037600008D011EA5E0FBDE8104004BF01F000412F
:1037700000207047BDE8104070B500F07FFA00BF30
:1037800064FBBE3E0000E0FF491058BFC1F140415C
:103790005B1058BFC3F140438B42EFF3008070478A
:1037A0002DE9C04130B4DFF8A0C23CEA111418BFC3
:1037B0003CEA131400F0EC8081EA03051CEA1114C2
:1037C00044EAD57418BF1CEA131500F0C780A4EBB7
:1037D00005044FF0004545EAC12145EAC32341EA0B
:1037E000505143EA525304F17F74994204F5003476
:1037F0004FEAC0204FEAC22208BF904200F09C80EE
:103800004FEA13650FF24016765D4FEA134506FB4B
:1038100005F7C7F1807706FB07F74FEAD737A7FB15
:1038200003687642C8F58038A7FB06CE38BFA8F1FA
:10383000010807FB08E64FF0000EA6FB028CE6FB32
:1038400003CEDCF1000CCEF1004E38BFAEF1010E1C
:10385000A6FB0C584FF000074FF00005E6FB0E8763
:10386000A1FB08C6A0FB07CE16EB0E0645F100052E
:10387000E1FB076515F1E04E7EBFA4F580345FEAF9
:1038800046066D4116F1800745F100054FEA1727FE
:103890004FEA066647EA0567A6F1DE46B6F1805FA5
:1038A0004FEA15251FD9384624F0010C05EBC471E9
:1038B000BCF1FE6F01EB0C1102D8F0BCBDE8008139
:1038C00024425CBF01F5801E9EEAC47F02D4F0BC96
:1038D000BDE80081244238D4F0BCA1F1C041BDE86C
:1038E000004100F019BA4FEAD22242EA43524FEAAD
:1038F000D323A7FB02864FEAD02040EA415007FBC2
:1039000003661EEA0E0F4FEAD12105FB026658BF7F
:10391000A6EB0056B6EB00564FEA520E4EEAC37EB7
:1039200018EB0E0E56EB530EBDD518EB02085E4198
:103930007F1C55F10005B6E74FF480154FF00007E6
:103940004FF000064FF00008ADE7F0BC4FF000006C
:1039500001F1C04101F00041BDE8008111EA0C1FF6
:103960000CEA131500D00CE013EA0C1F00F02580C0
:103970004FF00000F0BC81EA030101F00041BDE816
:103980000081F0BCBDE8004181EA030100F0C4B948
:10399000F0BCBDE8004170B500F070F9097EFC3E56
:1039A00000F007B881EA03014FF0000001F0004188
:1039B000704781EA030100F0AFB9F0BCBDE80041F7
:1039C0004FF0000021497047FFFDFBF9F7F5F4F2D5
:1039D000F0EEEDEBE9E8E6E4E3E1E0DEDDDBDAD8AA
:1039E000D7D5D4D3D1D0CFCDCCCBCAC8C7C6C5C408
:1039F000C2C1C0BFBEBDBCBBBAB9B8B7B6B5B4B31F
:103A0000B2B1B0AFAEADACABAAA9A8A8A7A6A5A409
:103A1000A3A3A2A1A09F9F9E9D9C9C9B9A999998CD
:103A20009797969595949393929191908F8F8E8E70
:103A30008D8C8C8B8B8A89898888878786858584FD
:103A400084838382828181800000FF070000F87FE9
:103A50004FEA41034FEA5353A3F58063D3F11E03AA
:103A6000C8BFD3F1210C0CDD4FF0004242EAC12265
:103A700042EA505232FA03FC8CEAE17CACEBE17092
:103A80007047102BC4BF0020704703F5787CBCF151
:103A9000FF3F04D06FF0004282EA2100704770B50A
:103AA00000F0ECF84992248000207047F2E7000013
:103AB00051EA030C17D41CF5801F58BFBCF5801FBA
:103AC00000F10680994218BF704708BF90427047C6
:103AD00007D711F5801F58BF13F5801F19D49942DD
:103AE0007047894270471CF5801F08D5BCF5801FC0
:103AF000F7D58B4218BF704708BF824270474FF41A
:103B0000001C1CEB410F38BF1CEB430F01D28B4252
:103B1000704770B500F0B2F8922449004FF00051A0
:103B20004FF08053FFF730BEDFF848C170B51CEA94
:103B3000111E1EBF1CEA13159EEA0C0F95EA0C0F0E
:103B400000F06F8081EA030423EA4C134EEAD47E2E
:103B500021EA4C1141F4801143F48013AE44A1FBDF
:103B6000024CA0FB0365AEF17F7E361955EB0C05C8
:103B7000A1FB034C4CF10003A0FB021C16EB0C064E
:103B8000654153F10003094218BF46F0010613F4E2
:103B9000007F0BD14FEA03314FEA0530340341EA8D
:103BA000155140EA16506FF003020AE04FEAC321B4
:103BB0004FEAC520F40241EA555140EA56506FF0F1
:103BC000020202EB2E4201EB025585EACE710AD0C9
:103BD0005FEA440C18BF24F0004450F1000041F1AA
:103BE000000120EAD47040F2FE7C624500D270BD34
:103BF000A84214BF4FF080444FF04044002E08BF4D
:103C00000024BEF1806FA8BFA1F1C041BDE87040A3
:103C100080F282804FF0000001F1C04101F00041CC
:103C200070479EEA0C0F0CEA131518BF95EA0C0FAB
:103C300006D04FF0000081EA030E0EF0004170BD87
:103C400000F01CF88900013E00F007B800F009B848
:103C50004FEA430C5FEA5C5C08D081EA030100F0A4
:103C60005BB84FEA410C5FEA5C5CF6D14FF00000B4
:103C7000014970470000FF070000F87F0EF1020EB7
:103C80002EF0030E5EF8046B364205D4012A43EB96
:103C9000030515F5001F12D8012841EB010C1CF596
:103CA000001F0CD80ED14FEAD17C15F5001F0CEB8C
:103CB0004C0C0CF1020C08BF4CEBD37C04E04FF031
:103CC000080C01E04FEAD37C0CEB4C0526FA05F614
:103CD00006F00706B6F1040C06D20EEB860CBDE822
:103CE00070404CF0010C6047DFE80CF0090B020259
:103CF0004FF000414FF00000A1F5002170BD1946C2
:103D00001046012851EB010418BFD4F5001484BFFC
:103D1000002001F0004170BD0808A0F500114FEA35
:103D20003101704753EA010C17D41CF5801F58BFAE
:103D3000BCF5801F00F106808B4218BF704708BF9A
:103D40008242704707D713F5801F58BF11F5801FB7
:103D500019D48B4270479B4270471CF5801F08D5D1
:103D6000BCF5801FF7D5994218BF704708BF904235
:103D700070474FF4001C1CEB430F38BF1CEB410F86
:103D800001D2994270470FB40CBC03BCFFF7C1BE0F
:103D900010B591EA030F48BF83F000433FF554ACE0
:103DA000841A71EB030C07D212198CF0004C43EB10
:103DB0000C03001B61EB0C01DFF8A4E14FEA115486
:103DC000A4EB135C1EEA430F18BF9EEA445F00F0A9
:103DD000B08023EA6E03524221EA0451C3EB6E0322
:103DE00038BF5B1EDCF1200E25D322FA0CFE10EB4F
:103DF0000E0043FA0CFE41EB0E01CCF1200E03FA4B
:103E00000EFE10EB0E0051F10001CCF1200E29D472
:103E100012FA0EF201EB0451BDE8104058BF704792
:103E2000401C1CBFB2F1004F704700280CBF491C5A
:103E300020F00100704712EB020E43EB030218BFA3
:103E40004FF0010E4EEA4202ACF1200CDCF11E0EE6
:103E500054D943FA0CFE10EB0E0051F1FF31CCF1B6
:103E60001E0ED5D50EF1010E12FA0EFE404141EBA9
:103E7000010101EB445C5FEA5C5C10D910EBDE7081
:103E800001EB045138BFBEF1004FBDE8104018BF30
:103E9000704700280CBF491C20F00100704730D249
:103EA0004FEAD42C11F5001124F400641BD0B1FAB0
:103EB00081F20B3AA41AA41ED2F12003914030FAE9
:103EC00003F31943904001EBCC71002C01EB04513A
:103ED000BDE81040A8BF704701F1C0414FF000009D
:103EE00001F000417047B0FA80F310FA03F100D1FD
:103EF00010BDE41A173C4805C90AE4E701EB045178
:103F000010BD491001EB0451BDE810404FEA3000EC
:103F100002E04FF0000170474A0008BF0042F8D0AD
:103F2000B2F5001F28BF704701F000414FF00000BC
:103F300070479EEA445F07D011EA5E0FBDE810406B
:103F400004BF002100207047BDE8104070B5FFF7A6
:103F500095FE00BF40DFF63E83F0004110467047FB
:103F60000000E0FF43004FEAD30C4FEA3C0C434013
:103F70001FBF40070CF1605113F0FE4F70471CF05B
:103F8000006F03D100200CF0004170470CF000439B
:103F900043EA507010B540EACC0000F040FA00BF90
:103FA000000000924FEA0001FFF7B6BE4FF000415B
:103FB0004FF00000A1F500217047000090EA010FCA
:103FC00048BF81F0004100F1AE82421A3CBF801A26
:103FD00089184FEAD0524FF07F4C1CEA410FA2EBF8
:103FE000D15318BF9CEA026F00F03B804FF0004CA9
:103FF0004CEA00204CEA012121FA03FC10EB0C0CE6
:104000001ED202F1FF325FEA1C2040EBC25038BFE3
:1040100070471CF07F0F4FEA400C18BFBCF17F4F78
:1040200038BF7047C3F12003994008BF20F001005A
:10403000BCF17F4F38BF7047A0F1C04000F035BAE7
:104040004FEA3C00000A40EBC25028BF1CF0FF0FB3
:104050004FEA400CE6D018BFBCF17F4F38BF704725
:10406000EAE79CEA026F05D010EA5C0F08BF00F097
:104070000040704710B500F0D2F900BF64FBBE3EAF
:10408000401058BFC0F14040491058BFC1F14041F5
:104090008142EFF3008070474FF47F0C1CEAD0128E
:1040A0001EBF1CEAD11392EA0C0F93EA0C0F00F02A
:1040B000858090EA010F48BF42F4807240F4000C02
:1040C00041F400002CF07F4120F07F4000B5814298
:1040D000A2EB03020FF2081CACEB504EC0F1000043
:1040E0009EF800E04FEA4E0E00FB0EFC38BF490080
:1040F0004FEA2C1C02F5FA020CFB0EF34FEACE1E1F
:104100004FEA112C4FEAC1210EEB635E42EB2242D3
:104110000EFB0CFC4FEA1C5300FB03114FEA112C61
:104120004FEA01310EFB0CFC4FEADC4C00FB0C119A
:10413000C14228BF09184CEB03335DF804EB10EBC8
:10414000410143EBC250B2F57C0F38BF704729D50F
:1041500012F0F00F1CBF00F1C04000F000407047AB
:10416000008182838485868788898B8C8D8E8F9150
:104170009293959697999A9C9D9FA0A2A3A5A7A874
:10418000AAACAEB0B2B3B5B7B9BCBEC0C2C5C7C9A0
:10419000CCCED1D4D7D9DCDFE2E6E9ECF0F3F7FA04
:1041A000FE0000004FEA400C0CF1807CBCF17E4F19
:1041B00028BF7047B0F1C04000F077B990EA010F16
:1041C0000CEAD11348BF42F48072624538BF6345A0
:1041D00007D213F47F0F16D080EA010000F00040F0
:1041E000704710B500F01BF9097EFC3E00F005B8E1
:1041F00080EA010000F00040704780EA010000F012
:10420000004000F052B912F47F0F04BF024870471B
:1042100080EA010000F049B90000C07FC10DD1F172
:104220009E0206DB4FEA002343F0004323FA02F02C
:104230007047004207D54FEA4001B1F1FE4F02D26C
:104240004FF00000704710B500F0E9F84992248063
:10425000002070476FEA20007047000010F0004116
:1042600048BF4042B0FA80F310FA03F2C3F19D0355
:104270000BD051EAC35101EB1220530638BF7047EF
:1042800000F1010008BF20F001007047B0FA80F390
:1042900010FA03F2C3F19D030AD0D90501EB1220F5
:1042A000530638BF704700F1010008BF20F001003D
:1042B0007047000050EA010C00F113801CF5000F5C
:1042C00058BFBCF5000F01D48842704707D710F5DE
:1042D000000F58BF11F5000F15D48842704789426E
:1042E00070471CF5000F04D5BCF5000FF7D58142CF
:1042F00070474FF0807C1CEB400F38BF1CEB410F28
:1043000001D28142704710B500F089F8922449002B
:104310004FF000504FF08051FFF7B2BE4FF47F0CCA
:104320001CEAD0121EBF1CEAD11392EA0C0F93EACA
:104330000C0F00F0478090EA010F48BF42F48072F2
:104340004FF0004C4CEA00204CEA012102EB030242
:10435000A0FB0113A2F50002002918BF43F00103DE
:104360005B0028BF4FEA330342EB22425FEA132C83
:104370004CEBC2502EBFBCEB436FB2F57C0F7047C5
:104380004FEA036CBCF1004F08BF20F00100B2F50A
:104390007C0F38BF70470BD582F0FF0212F5803FCB
:1043A000C8BF704700F1C040D8BF00F00040704760
:1043B00000F5000C5FEA4C0C48BF7047B0F1C040FC
:1043C00000F073B890EA010F0CEAD11348BF42F431
:1043D0008072624538BF634504D280EA010000F074
:1043E0000040704710B500F01AF800BF8900013E88
:1043F00000F007B800F009B85FEA410C5FEA1C6CF6
:1044000008D080EA010000F050B85FEA400C5FEA93
:104410001C6CF6D14FF00040A0F5800070470EF103
:10442000020E2EF0030E5EF8044B244204D44FEA31
:104430004102B2F17F4F11D84FEA4003B3F17F4FF1
:104440000CD80ED14FEAD07CB2F17F4F0CEB4C0C64
:104450000CF1020C08BF4CEBD17C04E04FF0080CCF
:1044600001E04FEAD17C0CEB4C0324FA03F404F096
:104470000704B4F1040C06D20EEB840CBDE8104026
:104480004CF0010C6047DFE80CF0070802024FF027
:104490000040A0F5800010BD0846420018BFD2F1D0
:1044A000807288BF00F0004010BDFF2141EAD0506B
:1044B000C005704751EA000C00F113801CF5000F95
:1044C00058BFBCF5000F01D48142704707D711F5E2
:1044D000000F58BF10F5000F15D481427047894274
:1044E00070471CF5000F04D5BCF5000FF7D58842C6
:1044F00070474FF0807C1CEB410F38BF1CEB400F26
:1045000001D28842704780EA010081EA000180EA16
:104510000100FFF7F8BE000090EA010F48BF81F0EC
:1045200000413FF552AD421A04D882F00042A0EBA0
:10453000020011444FEAD0524FF07F4C1CEA410F69
:10454000A2EBD15318BF9CEA026F4AD04FF0004C47
:104550004CEA00204CEA012121FA03FCB0EB0C0CE0
:104560000FD412F0FE0F36D05FEA4C001DD50012BA
:1045700040EBC25038BF70471CF03F0F18BF704768
:104580000BE0A2F101025FEA1C2040EBC25038BFF1
:1045900070471CF07F0F18BF7047C3F1200399408C
:1045A00014BF401E20F00100704780084FEA12231C
:1045B00008BF7047B0FA80FCA2EB0C02CCF1280CCB
:1045C00060FA0CF093EA122F04BF00EBC250704760
:1045D0004FEAC3707047130A5FEADC1008BF7047E8
:1045E000F6E79CEA026F04D010EA5C0F08BF0020D7
:1045F000704710B5FFF713FF40DFF63E81F0004033
:104600007047FCF747BA00000000000000000000FF
:1046100030313233343536373839414243444546F8
:1046200040305800303132333435363738396162F2
:1046300063646566403078000400000800000000F4
:104640000000000200010000100000000240000015
:10465000000000A00000000005400000000000C8AD
:10466000000000000C4000000000409C0000000022
:10467000194000000020BCBE0000000034400000D3
:10468000BFC91B8E00000004B5400000504BCFD0C6
:104690006607E2CF010000006C4100003E8251AA93
:1046A000DFEEA73401000000D9420000DCB5A0E233
:1046B0003A301F97FFFFFFFFB4450000FD25A0C85B
:1046C000E9A3C14FFFFFFFFFFF3F00000000008094
:1046D00000000000FF3F000000000080000000001C
:1046E0007B226964223A223236222C22766572734A
:1046F000696F6E223A22312E30222C227061726153
:104700006D73223A7B2263757272656E7454656DA7
:104710007065726174757265223A7B2276616C7580
:1047200065223A25647D2C2274757262696469740D
:1047300079223A7B2276616C7565223A25647D2C5C
:1047400022747572626964697479223A7B22766197
:104750006C7565223A25647D7D2C226D6574686FC9
:1047600064223A227468696E672E6576656E742ECF
:1047700070726F70657274792E706F7374227D0021
:10478000CC480008000000209C0000006C010008DC
:10479000684900089C000020AC0700008801000860
:1047A0001C00000043000000F8FFFFFF0C000000A9
:1047B0000E0000000F0000002E000000100100009D
:1047C00043000000F8FFFFFF0040404040404040F1
:1047D00040404141414141404040404040404040D4
:1047E0004040404040404040400502020202020278
:1047F00002020202020202020220202020202020C7
:1048000020202002020202020202909090909090DA
:104810001010101010101010101010101010101098
:10482000101010100202020202028888888888880C
:1048300008080808080808080808080808080808F8
:104840000808080802020202400000000000000000
:104850000000000000000000000000000000000058
:104860000000000000000000000000000000000048
:104870000000000000000000000000000000000038
:104880000000000000000000000000000000000028
:104890000000000000000000000000000000000018
:1048A0000000000000000000000000000000000008
:1048B00000000000000000000000000000000000F8
:1048C00000000000000000000000000000000000E8
:1048D00000000000000000000000000000000000D8
:1048E00000000000000000000000000000000000C8
:1048F000000000000000000000007A430000803F3C
:10490000000000008FC2D53F000000000000000042
:1049100000000000000000000070D34400A24A0420
:10492000000000000000000001020304060708095F
:104930000000000000000000000000000000000077
:104940000000000001020304010203040607080935
:104950000204060800000000000000000000000043
:0849600000000000000000004F
:040000050800022DC0
:00000001FF
